:100000000C946E260C949F260C949F260C949F268D
:100010000C949F260C949F260C949F260C949F264C
:100020000C949F260C949F260C949F260C949F263C
:100030000C949F260C949F260C949F260C949F262C
:100040000C949F260C94F8C50C949F260C949F2624
:100050000C949F260C949F260D9432280C945BF5EB
:100060000C949F260C9485490C9471490C949F26FE
:100070000C949F260C949F260C949F260C949F26EC
:100080000C94F23D0C949F260C949F260C949F2672
:100090000C949F260C949F260C949F260C949F26CC
:1000A0000C949F260C949F260C94C43D0C949F2680
:1000B0000C949F260C949F260C949F260C94963D9E
:1000C0000C949F260C949F260C949F260C949F269C
:1000D0000C949F260C949F260C944F3F0C947B49C4
:1000E0000C949F26823F943FA63FB73FBF3FEE3F11
:1000F000C33FEE3FC73FCB3FEE3FCF3FD33FD73F5E
:10010000DF3FEE3FE93FB849CA49DC49ED49F549CF
:10011000244AF949244AFD49014A244A054A094A20
:100120000D4A154A244A1F4A806F876F68707071A4
:10013000C272CB72DB724FF652F641F645F64BF6C1
:1001400089F656F65AF660F664F668F66EF672F6BA
:1001500076F689F67CF680F684F63AFE3FFE44FE9B
:100160004EFE58FED1FE62FE6AFE72FE7CFE86FEE8
:1001700090FE9FFEA9FED1FEB3FEBDFEC7FE9E020D
:10018000FC029801920210029C02EE02DE02FA01C9
:10019000A402040262024C0302024C034C034C030F
:1001A0004C034C034C034C034C034C034C034C03D7
:1001B0004C034C034C034C034C034C034C034C03C7
:1001C0004C034C034C034C034C034C034C030C02F8
:1001D0004C034C034C034C034C034C034C034C03A7
:1001E00008034C034C034C034C034C034C034C03DB
:1001F0004C034C034C03DA021403BA02CE02CE01C4
:100200006203CC0118039A0296022A031802200204
:100210004A02084AD73B3BCE016E84BCBFFDC12FCA
:100220003D6C74319ABD56833DDA3D00C77F11BEE7
:10023000D9E4BB4C3E916BAAAABE000000803F05EA
:10024000A84CCDB2D44EB93836A9020C50B991861B
:1002500088083CA6AAAA2ABE000000803F07634285
:1002600036B79BD8A71A39685618AEBAAB558C1D4D
:100270003CB7CC5763BD6DEDFD753EF6177231BFCF
:10028000000000803F08000000BE922449123EABEF
:10029000AAAA2ABECDCCCC4C3E00000080BEABAAA0
:1002A000AAAA3E00000000BF000000803F0000003E
:1002B0000000084178D3BB4387D1133D190E3CC3DE
:1002C000BD4282AD2B3E68EC8276BED98FE1A93E5D
:1002D0004C80EFFFBE01C4FF7F3F00000000000024
:1002E0000D9462750C9464F60C94B8490C944FF616
:1002F0000C9457EF0C945B8F0D94AA2A0C944EFE2D
:100300000C947CF60C94244A0C942E8E0D947B70E5
:100310000C940BEF0C94D33F0C9480F60D941E714B
:100320000D94972B0C94C7FE0C943AFE0C94C73F87
:100330000D9480270D9402780C9414830D94663FDD
:100340000D9481330D9420520C9484F60D94E83D65
:100350000C94DF3F0C9428F50D94AD2D0D94F57899
:100360000C94CA490C944CEC0D94576D0D94C677BF
:100370000C94CF3F0D94A68B0C941F4A0C94998B30
:100380000C94CC870D9431710C94ED490D94BD41C2
:100390000D9435490D9498750D94E8550D94E555D7
:1003A0000D945B4D0D9428520D940D690C94876F3C
:1003B0000C9460F60C9448860D94FB680D945C3F99
:1003C0000D94F9410D940C520C94688C0C946A8C29
:1003D0000C94B3FE0D94E4750C94C2720C94668C6C
:1003E0000C94DBEF0D94E58B0C94CB3F0C94E988D7
:1003F0000D94D9870D94CF270D94D33B0D948C7514
:100400000C94054A0D94CE480D9492480D94D56AEB
:100410000D9460710C94D6920D94C8480D94C272DC
:100420000D9498270C94F9490D94EB6B0C9441F6BC
:100430000D9407560C9489F60D9492750C9457EC14
:100440000D94F4550D945D430D943C6E0D94005243
:100450000D946E990C9490FE0D945D710D94A746C9
:100460000C94094A0D94A93D0D949B990D947676B0
:100470000C94D7EF0C94EE3F0D947E710D948A711D
:100480000D946D4F0C94FD490C9412ED0C94A9FE43
:100490000D943E330D94F7550C940A840D94057118
:1004A0000D9486750C9472F60D94AD700D94DF4E1C
:1004B0000D94EC700D94A8460D948F500C9452F648
:1004C0000D94EA870D9412470D947A750C94C33FEE
:1004D0000D9410520C94D1870C940D4A0C942BF06F
:1004E0000D9404520C94806F0C94D73F0C946EF6CC
:1004F0000D9444710D94F3410D94C2300D94EE8728
:100500000D9414520C94EFED0C9445F60C94DFEF1F
:100510000D9418520C9458FE0C94BF3F0D947577AF
:100520000C94E93F0D9493270D9408520D94FA55BD
:100530000D9484870D94EE550D94AB270D94AD2644
:100540000C9448840D94C2410D949D260C94608CAB
:100550000C9456F60D94E1720C94014A0D9472714C
:100560000C94CE830C9444FE0C94D6870C9476F6AF
:100570000D94B7770D9409560D94C6700D9456429C
:100580000D943C4E0C9472FE0D94918C0D94692C3C
:100590000D9428160C94154A0C94BDFE0D94E2554A
:1005A0000D943D790D9494700C94FEF40C94E4EB4E
:1005B0000D94346D0D94E5480C94D1FE0D94C32731
:1005C0000C94DB720C9433F30C94DDA00D94E74192
:1005D0000D947A4D0D946E750C947CFE0D94B0279D
:1005E0000C949FFE0D941C520D9468750D94D58744
:1005F0000C94A63F0C94B73F0D947B270D94807507
:100600000C941BF10C9468700D945C490C94DC49BB
:100610000D94A1480C944BF60C94BC890D94613F49
:100620000D94556D0D9463710D9448470C9468F6C4
:100630000D94EB550C944D870C9427EE0C9470712F
:100640000C94E3880D945B6D0D947E440C94CB72F6
:100650000D94C7410D94F1550D9460700C943FFEBC
:100660000C94823F0D9474750C94434B0C9418ECCD
:100670000D94536A0C945AF60C94943F0C946AFEB1
:100680000D94573F0D94BE490C9486FE0D944D4237
:100690000D9424520D94B01F0D944B470C9462FEA0
:1006A0000C94F5490D949E750D9451160D94523F7E
:1006B0000D94834D0C94628C0D94E1410D94015581
:1006C0000D94596D0D940C560D94B82A0D94AB46AB
:1006D0000D948B4D0D94ED410C9462EC0D94D970FA
:1006E0000D94536D0C94648C4E414E494E495459AF
:1006F000494E46CDCCCC3D0AD7233C17B7D13877ED
:10070000CC2B329595E6241FB14F0A000020410002
:1007100000C84200401C4620BCBE4CCA1B0E5AAE4C
:10072000C59D7400407A10F35A00A0724E1809005B
:1007300010A5D4E80000E87648170000E40B540246
:100740000000CA9A3B000000E1F505000080969881
:1007500000000040420F000000A0860100000010D1
:100760002700000000E80300000000640000000013
:10077000000A00000000000100000000002C76D8F4
:1007800088DC674F0823DFC1DFAE59E1B1B796E5DA
:10079000E3E453C63AE651997696E8E6C28426EB3E
:1007A000898C9B62ED407C6FFCEFBC9C9F40F2BA51
:1007B000A56FA5F490055A2AF75C936B6CF9676DE9
:1007C000C11BFCE0E40D47FEF520E6B500D0ED903E
:1007D0002E0300943577050080841E080000204E0B
:1007E0000A000000C80C333333330F986E128311A4
:1007F00041EF8D2114893BE65516CFFEE6DB18D17B
:10080000844B381BF77C1D901DA4BBE4242032844C
:10081000725E228100C9F124ECA1E53D27434F4DD2
:100820004D554E49434154494F4E0044525952553B
:100830004E004552524F5253004543484F004D65BC
:10084000736820706F696E74206F7574206F6620F6
:1008500072616E67650A00536C6565702E2E2E00FE
:100860005A2050726F626520506173742042656433
:100870000A005A2050726F626520506173742042E2
:10088000656400205A3A200020593A2000426564ED
:1008900020583A20004E6F204D6F76652E00456E31
:1008A000642066696C65206C6973740A0042656730
:1008B000696E2066696C65206C6973740A00286E25
:1008C0006F2066696C65290043757272656E7420CD
:1008D00066696C653A20005072696E742074696DA7
:1008E000653A200050726F746563746564205069C6
:1008F0006E0A00496E76616C69642050696E204D05
:100900006F64650A000A53746174733A2046696C17
:10091000616D656E7420757365643A20002C204CFF
:100920006F6E67657374206A6F623A2000546F744B
:10093000616C2074696D653A20002C204661696CF9
:1009400065643A20002C2046696E69736865643AD4
:1009500020005072696E74733A200053746174738E
:100960003A200044454255473A004D313133205337
:100970000050533A300A0050533A310A0044655649
:10098000656C6958204F46462E004348414D42450C
:10099000525F54454D5045524154555245004241D5
:1009A00042595354455050494E4700415243530019
:1009B0004D4F54494F4E5F4D4F44455300544845A9
:1009C000524D414C5F50524F54454354494F4E0095
:1009D0004C4F4E475F46494C454E414D45004155B1
:1009E000544F5245504F52545F53445F53544154F7
:1009F0005553005344434152440050524F4D5054BC
:100A00005F535550504F525400454D455247454E47
:100A100043595F50415253455200434153455F4C47
:100A2000494748545F4252494748544E4553530042
:100A3000544F47474C455F4C494748545300534F28
:100A40004654574152455F504F5745520042554911
:100A50004C445F50455243454E54004C4556454C1E
:100A6000494E475F44415441005A5F50524F4245FE
:100A7000004155544F4C4556454C005052494E5438
:100A80005F4A4F420050524F475245535300415521
:100A9000544F5245504F52545F54454D5000564F9D
:100AA0004C554D45545249430042494E4152595FBD
:100AB00046494C455F5452414E53464552005345BA
:100AC0005249414C5F584F4E5F584F464600464989
:100AD000524D574152455F4E414D453A4D61726C02
:100AE000696E206275676669782D322E302E782007
:100AF0002846656220203520323032312032303AAB
:100B000030333A30372920534F555243455F434FD6
:100B100044455F55524C3A68747470733A2F2F678E
:100B200069746875622E636F6D2F4D61726C696EAA
:100B30004669726D776172652F4D61726C696E20C6
:100B400050524F544F434F4C5F56455253494F4EAE
:100B50003A312E30204D414348494E455F5459505B
:100B6000453A446556656C69582045585452554479
:100B700045525F434F554E543A3220555549443AF9
:100B800063656465326132662D343161322D3437EC
:100B900034382D396231322D633535633632663360
:100BA000363766660A002F2F20004D31343520532A
:100BB0003C696E6465783E206F7574206F662072A4
:100BC000616E67652028302D31290A004163636515
:100BD0006C65726174696F6E3A2050003F4A206FF5
:100BE0007574206F662072616E67652028302E3024
:100BF0003120746F20302E33290A0020204D617877
:100C00003A200020204D696E3A2000536F66742010
:100C1000656E6473746F70733A200046523A002018
:100C2000466C6F773A200020536572766F20002063
:100C3000643A0020693A0020703A0046696C616DA0
:100C4000656E742072756E6F757420004D3432318C
:100C500020696E636F727265637420706172616D7A
:100C6000657465722075736167650A004F66667307
:100C7000657473204170706C696564004572723AE6
:100C800020546F6F206661722100546F6F2066617F
:100C9000722066726F6D207265666572656E63653F
:100CA00020706F696E740A00454550524F4D204FB9
:100CB0004B0A00506F7765722D6C6F7373207265ED
:100CC000636F7665727920003908994A32082B08DB
:100CD0001D08726F746174696F6E206D6174726942
:100CE000783A0A005A5F6D6F76655F636F6D700AC0
:100CF00000206D61783A00206D696E3A0041786994
:100D0000732000534C4F57005072696E7465722007
:100D100073746F707065642064756520746F2065EE
:100D200072726F72732E2046697820746865206530
:100D300072726F7220616E6420757365204D39394F
:100D40003920746F20726573746172742E20285478
:100D5000656D706572617475726520697320726566
:100D60007365742E20536574206974206166746500
:100D7000722072657374617274696E67290A004526
:100D800072726F722077726974696E6720746F2057
:100D9000454550524F4D210A0053544F5050454441
:100DA0002E20004E6F20436865636B73756D20774E
:100DB000697468206C696E65206E756D6265722C51
:100DC000204C617374204C696E653A20006368653D
:100DD000636B73756D206D69736D617463682C202E
:100DE0004C617374204C696E653A20004C696E65E5
:100DF000204E756D626572206973206E6F74204C91
:100E0000617374204C696E65204E756D6265722B3E
:100E1000312C204C617374204C696E653A20004D72
:100E20003131300053442072656164206572726F05
:100E3000720A002121204B494C4C20636175736577
:100E400064206279204B494C4C20627574746F6E3B
:100E50002F70696E0A002121204B494C4C206361A0
:100E60007573656420627920746F6F206D75636897
:100E700020696E6163746976652074696D65202DE3
:100E80002063757272656E7420636F6D6D616E6440
:100E90003A2000627573793A207061757365642039
:100EA000666F7220696E7075740A00627573793AA4
:100EB0002070617573656420666F7220757365724A
:100EC0000A00627573793A2070726F636573736993
:100ED0006E670A004D656469612052656D6F7665C5
:100EE00064004D6564696120496E73657274656460
:100EF000004D313030302053004730205A257300E8
:100F0000473120463330303020452D31300070617C
:100F1000757365004D363030002066696C616D6513
:100F20006E745F72756E6F7574200066696C616DAA
:100F3000656E745F72756E6F757420540046696CCF
:100F4000616D656E7452756E6F757420540011106A
:100F50003025362F372339383E2120171618021E28
:100F600045031F442D090708060941000109000037
:100F70000A010008000A01000A090000000A00082E
:100F8000007C0F770F720F6D0F25532025692F25D9
:100F900069004D65736820506F696E74204D6561FE
:100FA00073757265642061743A20000A4D65736838
:100FB000206F6E6C79207061727469616C6C79203D
:100FC000706F70756C617465642E0A00506C61639B
:100FD00065205368696D2026204D656173757265C3
:100FE000004D6F76696E6720746F206E65787400AF
:100FF0004D6573682045646974696E672053746F2A
:101000007070656400446F6E652045646974696E34
:1010100067204D6573680A00446F6E6520456469FA
:1010200074696E67204D6573680046696E6520546B
:10103000756E696E67204D6573680028582C5929B4
:10104000206F757473696465207072696E74616273
:101050006C65207261646975732E0A004F66667351
:101060006574206F7574206F6620626F756E64738F
:101070002E20283020746F2031306D6D290A0A002F
:10108000496E76616C6964206D6170207479706559
:101090002E0A0A003F284629616465206865696751
:1010A000687420666F7220426564204C6576656CBA
:1010B00020436F7272656374696F6E206E6F742067
:1010C000706C61757369626C652E0A0A003F43613A
:1010D0006E277420616374697661746520616E6443
:1010E000206465616374697661746520617420743D
:1010F00068652073616D652074696D652E0A0A004C
:10110000426F7468205820262059206C6F636174E8
:10111000696F6E73206D75737420626520737065DE
:101120006369666965642E0A0A003F496E76616CE0
:10113000696420677269642073697A6520284A2986
:10114000207370656369666965642028322D3929CA
:101150002E0A0A003F285029686173652076616C69
:10116000756520696E76616C69642028302D36299A
:101170002E0A0A003F2856296572626F7365206C3B
:101180006576656C20696D706C61757369626C65FC
:101190002028302D34292E0A0A003F285229657054
:1011A00065746974696F6E20636F756E7420696E03
:1011B00076616C69642028312B292E0A0A00446F5D
:1011C000696E6720473239005D0A006265642070ED
:1011D0006C616E65206E6F726D616C203D205B00EE
:1011E000436F756C64206E6F7420636F6D706C65F7
:1011F0007465204C5346210054696C74696E6720F5
:101200006D65736820706F696E7420003F4572725F
:101210006F722070726F62696E6720706F696E7492
:101220002E2041626F7274696E67206F7065726103
:1012300074696F6E2E0A00255320332F33005469D2
:101240006C74696E67206D6573682028332F3329AD
:101250000A00255320322F330054696C74696E677D
:10126000206D6573682028322F33290A00436F727E
:101270007265637465645F5A3D0054696C74696E8D
:101280006720506F696E7400255320312F3300544E
:10129000696C74696E67206D6573682028312F331F
:1012A000290A0050726F62696E67204661696C6539
:1012B000640A0050726F62696E67204661696C65EE
:1012C0006400446F6E652E0A003F496E76616C695A
:1012D000642073746F7261676520736C6F742E0A7B
:1012E0003F557365203020746F20004732392050FD
:1012F000322066696E69736865642E0A0058592049
:101300006F757473696465207072696E7461626C64
:1013100065207261646975732E0A003F4572726FB1
:101320007220696E20427573696E65737320436124
:101330007264206D6561737572656D656E742E0AD9
:10134000004D616E75616C6C792070726F62696EB0
:101350006720756E726561636861626C6520706F8D
:10136000696E74732E0A0050726F62696E67206135
:10137000726F756E642028004D65736820696E7603
:10138000616C6964617465642E2050726F62696E6D
:1013900067206D6573682E0A004D657368207A6555
:1013A000726F65642E0A0044656661756C74207303
:1013B000746F7261676520736C6F74203020736581
:1013C0006C65637465642E0A004C6F6164696E67B6
:1013D00020746573745F7061747465726E207661D9
:1013E0006C7565732E0A0A00496E76616C6964201B
:1013F000746573745F7061747465726E2076616C6D
:1014000075652E20282D3120746F2032290A0A009C
:101410004C6F636174696F6E7320696E76616C697D
:1014200064617465642E0A0A00456E7469726520F1
:101430004D65736820696E76616C6964617465647A
:101440002E0A0A004D65616E204D6573682048655F
:10145000696768743A200023206F662073616D709D
:101460006C65733A20000A4D657368206F6E6C7965
:10147000207061727469616C6C7920706F70756C2A
:10148000617465642E0A0A0050726F62696E67208B
:10149000506F696E74000A50726F62696E67206DDA
:1014A00065736820706F696E74200020616E64201F
:1014B00074616B652061206D6561737572656D6522
:1014C0006E742E0A006D6D20746869636B2E0A00BD
:1014D000427573696E65737320436172642069732A
:1014E000200052656D6F76652026204D656173750D
:1014F0007265204265640052656D6F766520736881
:10150000696D00506C616365207368696D20756E4C
:10151000646572206E6F7A7A6C6500206D61783A2E
:101520002000206D696E3A20003F5A206F757420AC
:101530006F662072616E67652028003F59206F75C5
:1015400074206F662072616E676520282D003F58F9
:10155000206F7574206F662072616E676520282D7C
:101560000050726F6265204F666673657420580084
:10157000656E7175657565696E67202200526573C9
:10158000656E643A20005072696E7420446F6E6517
:1015900000446F6E65207072696E74696E672066B4
:1015A000696C650A004D3737004D33310052657361
:1015B000756D696E6720534400256979202569643B
:1015C000202569682025696D2025697300452563FC
:1015D0002025530042656420436F6F6C696E672E4F
:1015E0002E2E004265642048656174696E672E2E58
:1015F0002E0023646566696E652044454641554C5E
:10160000545F004B6420004B6920004B7020005059
:101610004944204175746F74756E652066696E6902
:1016200073686564212050757420746865206C614E
:101630007374204B702C204B6920616E64204B64C6
:1016400020636F6E7374616E74732066726F6D20A9
:1016500062656C6F7720696E746F20436F6E666988
:101660006775726174696F6E2E680A005049442074
:101670004175746F74756E65206661696C6564216F
:101680002074696D656F75740A000A20436C61737C
:1016900073696320504944200A00204B643A2000BB
:1016A000204B693A2000204B703A20000A204E6FF0
:1016B000206F76657273686F6F740A002054753AF4
:1016C0002000204B753A200020643A2000206269F7
:1016D00061733A2000504944204175746F74756EEF
:1016E000652073746172740A005049442041757416
:1016F0006F74756E65206661696C65642120546540
:101700006D706572617475726520746F6F206869A1
:1017100067680A00504944204175746F74756E659E
:1017200000504944204175746F74756E6520666180
:10173000696C656421204261642065787472756407
:101740006572206E756D6265720A005045544700DF
:10175000504C4100496E666F2053637265656E00A0
:1017600047726964204D657368204C6576656C69C5
:101770006E6700473239204A3000332D506F696E52
:1017800074204C6576656C696E670047323920506D
:1017900033205220432E2569004D616E75616C2007
:1017A00046696C6C2D696E004732392050332054E5
:1017B0003000536D6172742046696C6C2D696E0047
:1017C00046696C6C2D696E20416D6F756E74004DAD
:1017D00065736820696E76616C6964617465642EF6
:1017E0000A00473239204900496E76616C696461AC
:1017F000746520436C6F7365737400496E76616C19
:10180000696461746520416C6C0047323920503145
:10181000204300436F6E74696E75652042656420D5
:101820004D6573680046696C6C2D696E204D65735B
:1018300068004732380A4732392050310042756912
:101840006C6420436F6C64204D6573680042756959
:101850006C6420437573746F6D204D657368004729
:1018600032380A4D3139302049310A4D3130392072
:1018700049310A4732392050310A4D313034205332
:10188000300A4D313430205330004732380A4D3160
:1018900039302049300A4D3130392049300A473239
:1018A000392050310A4D3130342053300A4D313413
:1018B00030205330004275696C64204D6573682098
:1018C0002824290047323920256325690A4D313102
:1018D0003720004D657368202569204C6F61646571
:1018E00064004D6573682025692053617665640046
:1018F0005361766520426564204D657368004C6FC6
:10190000616420426564204D657368004D656D6FAC
:10191000727920536C6F74004E6F2053746F726134
:1019200067650047323920503420582573205925E7
:10193000732052256900202D2D2D2D2D00486F6D0F
:10194000696E672058595A004732380047323920AB
:10195000532D31004F6666205072696E7465722097
:101960004261636B757000473239205431004F7506
:101970007470757420666F72204353560047323975
:10198000205430004F757470757420666F72204853
:101990006F73740045646974204D65736800473245
:1019A0003920493939390A4732392050322042200A
:1019B0005430004D616E75616C6C79204275696CB4
:1019C00064204D6573680050174B174C6F6164209D
:1019D00046696C616D656E74202A004C6F616420ED
:1019E0006D6D00556E6C6F61642046696C616D654C
:1019F0006E74202A00556E6C6F6164206D6D004618
:101A0000696C2E204469612E202A0046696C2E20C4
:101A10004469612E004520696E206D6DC2B30020BF
:101A2000082046616374002008204D61780020087A
:101A3000204D696E004175746F74656D7000565469
:101A4000726176204D696E00566D696E00566D614B
:101A500078204500566D6178205A00566D617820D7
:101A60005900566D6178205800416D61782045001D
:101A7000416D6178205A00416D6178205900416DB7
:101A80006178205800412D54726176656C00412DBB
:101A90005265747261637400416363656C003F4515
:101AA0004550524F4D2073746F72616765206E6FA1
:101AB0007420617661696C61626C652E0A005374F2
:101AC000616E6461726420446576696174696F6EE9
:101AD0003A200070617573656400726573756D6599
:101AE0006400526573756D696E67004F46460A0063
:101AF00046616465204865696768742000426564D2
:101B0000204C6576656C696E6720004661696C657E
:101B10006420746F20656E61626C6520426564208C
:101B20004C6576656C696E670A00496E76616C6912
:101B300064206D6573682E0A0076616C69640A53CF
:101B4000746F7261676520736C6F743A20004D6525
:101B5000736820697320003F496E76616C69642068
:101B600073746F7261676520736C6F742E0A004422
:101B70006576696174696F6E0025533A202573009C
:101B80002052616E67653A20004D65616E3A200013
:101B900046696E6973686564210A002072616E6728
:101BA000653A2000207369676D613A2000206D65F9
:101BB000616E3A20003A207A3A2000206F662000B9
:101BC000476F696E6720746F3A20580043570A00C8
:101BD000206469723A0020616E676C653A00537444
:101BE000617274207261646975733A004D343820F3
:101BF000506F696E740025533A2025642F256400C8
:101C0000506F736974696F6E696E672074686520C0
:101C100070726F62652E2E2E0A003F4E756D6265E2
:101C200072206F66206C65677320696E206D6F7619
:101C3000656D656E74206E6F7420706C617573696C
:101C4000626C652028302D3135292E0A003F20286E
:101C5000582C5929206F7574206F6620626F756E3D
:101C600064732E0A003F53616D706C652073697A4E
:101C700065206E6F7420706C61757369626C65208D
:101C800028342D3530292E0A004D3438205A2D5055
:101C9000726F6265205265706561746162696C691A
:101CA000747920546573740A003F2856296572625E
:101CB0006F7365206C6576656C20696D706C6175FD
:101CC0007369626C652028302D34292E0A0000804B
:101CD000A74300809D43008089430000F0C10000BD
:101CE000A0C100000000000070420000704200002F
:101CF00080400202040000A0400000A0400000005C
:101D0000400080B6430080A74300808943FFFFFF67
:101D1000486F6D652025732573257320466972739E
:101D20007400486F6D696E67204661696C65640078
:101D30005761726E696E673A20486F6D696E6720F1
:101D400042756D702044697669736F72203C203152
:101D50000A0053657474696E67732053746F7265FB
:101D600064002062797465733B20637263200053C2
:101D7000657474696E67732053746F72656420288C
:101D8000004E6F20454550524F4D2E0A004545509C
:101D9000524F4D206461746173697A652065727277
:101DA0006F722E0A003F4D65736820746F6F20625A
:101DB000696720666F7220454550524F4D2E0A00CC
:101DC00055424C2072657365740A00206C6F616423
:101DD00065642066726F6D2073746F726167652E23
:101DE0000A004D65736820003F43616E27742065CB
:101DF0006E61626C65200020696E697469616C694E
:101E00007A65642E0A0A002073746F726564207309
:101E1000657474696E67732072657472696576653E
:101E200064202800202863616C63756C61746564AC
:101E300029210A0020213D2000454550524F4D20C8
:101E4000435243206D69736D61746368202D2028AF
:101E500073746F726564292000496E6465783A2056
:101E600000204D61726C696E3D563831290A00457B
:101E70004550524F4D2076657273696F6E206D69C3
:101E8000736D617463682028454550524F4D3D0085
:101E900024F4D43050C38E20C2A24017828B70111C
:101EA000127A910D816CD90AA861E108C7586607BA
:101EB000615143061E4B5D05C145A7041A4111043B
:101EC000093D9803713931034036DB0265339102D5
:101ED000D4305402802E1D02632CEE01752AC501F8
:101EE000B028A001102781018F2564012B244B010C
:101EF000E0223401AC211F018D200D01801FFC0068
:101F0000841EED00971DDF00B81CD200E61BC60042
:101F1000201BBC00641AB200B219A8000A19A00064
:101F20006A189900D117910040178B00B5168400EC
:101F300031167E00B31579003A157300C7146F008F
:101F400058146A00EE1366008813630025135E00C0
:101F5000C7125B006C12570015125400C1115100DA
:101F600070114F0021114B00D61049008D10470011
:101F70004610440002104200C00F4000800F3E0097
:101F8000420F3C00060F3B00CB0E3800930E37008B
:101F90005C0E3500270E3400F30D3200C10D310008
:101FA000900D3000600D2E00320D2D00050D2C001F
:101FB000D90C2B00AE0C2900850C29005C0C2700E5
:101FC000350C27000E0C2600E80B2400C40B24005F
:101FD000A00B23007D0B23005A0B2100390B21009D
:101FE000180B2000F80A1F00D90A1E00BB0A1E00A9
:101FF0009D0A1D00800A1D00630A1C00470A1B0081
:102000002C0A1B00110A1A00F7091A00DD09190031
:10201000C4091900AB091900920917007B091800BF
:10202000630917004C09160036091600200916002E
:102030000A091500F5081500E0081400CC08140082
:10204000B8081400A4081400900813007D081200BA
:102050006B081300580812004608120034081100DB
:10206000230811001208110001081100F0071000E8
:10207000E0071000D0071000C0071000B0070F00E5
:10208000A107100091070E0083070F0074070F00CF
:1020900065070E0057070E0049070E003B070D00AD
:1020A0002E070E0020070D0013070D0006070D0078
:1020B000F9060C00ED060D00E0060C00D4060C003D
:1020C000C8060C00BC060C00B0060C00A4060B00F1
:1020D00099060C008D060B0082060B0077060B009C
:1020E0006C060B0061060A0057060B004C060A003E
:1020F00042060A0038060A002E060A0024060A00D4
:102100001A060A001006090007060A00FD05090064
:10211000F4050900EB050900E2050900D9050900ED
:10212000D0050900C7050900BE050900B50508006E
:10213000AD050800A50509009C05080094050800E8
:102140008C050800840508007C050800740508005B
:102150006C050700650508005D05070056050800C9
:102160004E05070047050700400508003805070031
:10217000310507002A050700230507001C05060096
:10218000160507000F0507000805060002050700F1
:10219000FB040600F5040700EE040600E804060050
:1021A000E2040700DB040600D5040600CF040600A5
:1021B000C9040600C3040600BD040600B7040600F7
:1021C000B1040500AC040600A6040600A004050046
:1021D0009B04060095040500900406008A0405008F
:1021E00085040500800406007A04050075040500D6
:1021F000700405006B040500660405006104050019
:102200005C04050057040500520405004D04050058
:1022100048040500430405003E0404003A04050098
:1022200035040500300404002C04050027040400D4
:10223000230405001E0404001A040400160405000B
:10224000110404000D040400090405000404040042
:1022500000040400FC030400F8030400F403040079
:10226000F0030400EC030400E8030400E4030400AA
:10227000E0030400DC030400D8030400D4030400DA
:10228000D0030400CC030400C8030300C50303000B
:1022900024F404D9201BC40C5C0E9804C4095F020A
:1022A00065077101F405F900FB04B30048048700D9
:1022B000C10369005803550003034500BE023A00FC
:1022C0008402310053022A00290225000402200062
:1022D000E4011C00C8011900AF01170098011400A7
:1022E00084011300710110006101100051010E0002
:1022F00043010D0036010B002B010B0020010B00E8
:10230000150109000C01090003010800FB00080089
:10231000F3000800EB000700E4000600DE00060002
:10232000D8000600D2000600CC000500C70005005A
:10233000C2000500BD000400B9000400B50004009F
:10234000B1000400AD000400A9000400A5000300D2
:10235000A20003009F0004009B00030098000300FC
:102360009500020093000300900003008D0002001E
:102370008B00030088000200860002008400030036
:10238000810002007F0002007D0002007B0002004D
:10239000790002007700010076000200740002005C
:1023A00072000100710002006F0002006D00010068
:1023B0006C0002006A000100690002006700010071
:1023C0006600010065000100640002006200010077
:1023D00061000100600001005F0002005D0001007B
:1023E0005C0001005B0001005A000100590001007F
:1023F000580001005700010056000100550001007F
:10240000540001005300000053000100520001007D
:1024100051000100500001004F0001004E0000007B
:102420004E0001004D0001004C0001004B00000077
:102430004B0001004A000100490001004800000073
:10244000480001004700010046000000460001006E
:102450004500000045000100440001004300000069
:102460004300010042000000420001004100000062
:1024700041000100400001003F0000003F0001005A
:102480003E0000003E0001003D0000003D00010054
:102490003C0000003C0000003C0001003B0000004C
:1024A0003B0001003A0000003A0001003900000042
:1024B0003900010038000000380000003800010039
:1024C0003700000037000100360000003600000031
:1024D0003600010035000000350000003500010025
:1024E000340000003400000034000100330000001C
:1024F0003300000033000100320000003200000011
:102500003200010031000000310000003100010004
:102510003000000030000000300001002F000000FB
:102520002F0000002F0000002F0001002E000000EF
:102530002E0000002E0001002D0000002D000000E4
:102540002D0000002D0001002C0000002C000000D8
:102550002C0000002C0001002B0000002B000000CC
:102560002B0000002B0001002A0000002A000000C0
:102570002A0000002A0001002900000029000000B4
:1025800029000000290000002900010028000000A7
:10259000280000002800000028000000280001009A
:1025A000270000002700000027000000270000008F
:1025B0002700010026000000260000002600000081
:1025C0002600000026000100250000002500000074
:1025D0002500000025000000250000002500010066
:1025E000240000002400000024000000240000005B
:1025F000240001002300000023000000230000004D
:10260000230000002300000023000000230001003D
:102610002200000022000000220000002200000032
:102620002200000022000100210000002100000023
:102630002100000021000000210000002100000016
:102640002100010020000000200000002000000008
:1026500020000000200000002000000020000000FA
:10266000200001001F0000001F0000001F000000EC
:102670001F0000001F0000001F0000001F000100DD
:102680001E0000001E0000001E0000001E000000D2
:10269000043700001E290000511B000058100000E4
:1026A00010090000CC040000780200004101000085
:1026B000000120436F756E7420583A004532004582
:1026C00031002C2073797374656D2073746F707092
:1026D000656421204865617465725F49443A200051
:1026E00048656174696E67204661696C656400487D
:1026F000656174696E67206661696C6564004D315F
:1027000031322053687574646F776E0020746F6F78
:10271000206C6F6E6720657874727573696F6E20B8
:1027200070726576656E7465640A00DB0FC93F459B
:10273000BCDA3F8FB30240FCF0274056946140FE64
:102740004B9B4084A5D840E0231841346A5641E8A9
:1027500059974164DBD5416E271742B4B75542CE35
:102760001A9742C8AED542B5885A43D40684BFA64C
:102770005FA7BF7443E0BF10B11AC01C2C58C0E85B
:10278000F697C0B849D6C04E4E17C124D355C18064
:102790002497C1A0B5D5C1121A17C244AE55C2784C
:1027A0001797C26CACD5C267885AC36F70656E202C
:1027B0006661696C65642C2046696C653A2000206E
:1027C000453A00205A3A0020593A00220A00556E34
:1027D0006B6E6F776E20636F6D6D616E643A202251
:1027E0000001021020200808102040102040800224
:1027F0000102010804020101020408102040808047
:1028000040201008040201800402018040201008CA
:1028100004020108040201010204081020408001A2
:102820000204081020408000002200250028002B10
:10283000002E003100340002010000050108010BE8
:102840000105050505070508080808020202020A35
:102850000A08080404040401010101010101010343
:1028600003030303030303040707070C0C0C0C0CFE
:102870000C0C0C0202020206060606060606060BF1
:102880000B0B0B0B0B0B0B50726F6265205A204F1A
:102890006666736574004D61696E00436F6F6C64AA
:1028A0006F776E0050726568656174202400466120
:1028B0006E205370656564207E004E6F7A7A6C6579
:1028C000207E00466C6F77207E00466C6F77005A42
:1028D0002056616C7565004732380A4D3139302019
:1028E0005325690A4D313039205325690A47323959
:1028F000205031004265642054656D7000486F744B
:10290000656E642054656D70004732392050362062
:1029100043202D0048656967687420416D6F756EAE
:10292000740041646A757374204D6573682048654E
:102930006967687400473239205034205400466972
:102940006E652054756E6520436C6F7365737400FB
:1029500047323920503420523939392054004669E1
:102960006E652054756E6520416C6C0047323920CD
:102970004A2569004C6576656C204D657368005387
:1029800069646520506F696E747300687474703A7E
:102990002F2F6D61726C696E66772E6F72670062A1
:1029A00075676669782D322E302E7800656E64006A
:1029B0002020506C616E6E6572427566666572426B
:1029C000797465733A20002046726565204D656D07
:1029D0006F72793A2000436F6D70696C65643A20BC
:1029E00046656220203520323032310A00204C61A9
:1029F000737420557064617465643A2032303230EB
:102A00002D30372D3136207C20417574686F723A35
:102A100020285065747220466F72656A74290A0016
:102A20006275676669782D322E302E780A004D6106
:102A3000726C696E0020536F667477617265205204
:102A4000657365740A00205761746368646F67205A
:102A500052657365740A002042726F776E206F753D
:102A6000742052657365740A002045787465726E2F
:102A7000616C2052657365740A00506F77657255FA
:102A8000700A006175746F25632E67004D31303018
:102A900031006572726F722077726974696E672097
:102AA000746F2066696C650A00446F6E65207361FF
:102AB00076696E672066696C652E0A004D323900B2
:102AC000456E6473746F7073002553202563202551
:102AD0006320256320256300656E6473746F7073D3
:102AE000206869743A200000000000000000000027
:102AF00000000000000000000000000000000000D6
:102B000000000000000000000000000000000000C5
:102B10000000000000000000003000000001000084
:102B2000000000000000000000E000000000E000E5
:102B3000000000000000000003C000000000F000E2
:102B400000000000000000000780000000007C0082
:102B500000000000000000001F00000000003E0018
:102B600000000000000000003E00000000001F0008
:102B700000000000000000007E00000000000F8048
:102B80000000000000000000FC000000000007C082
:102B90000000000000000001F8000000000007E055
:102BA0000000000000000001F8000000000007F035
:102BB0000000000000000003F8000000000007F023
:102BC0000000000000000003F8000000000007F80B
:102BD0000000000000000007FC000000000007F8F3
:102BE0000000000000000007FC000000000007F8E3
:102BF0000000000000000007FF00000000001FFCB4
:102C00000000000000000007FF8001FFF0007FFCD3
:102C10000000000000000007FFFC3FFFFF01FFFC79
:102C20000000000000000007FFFFFFFFFFFFFFFCA8
:102C30000000000000000007FFFFFFFFFFFFFFFC98
:102C40000000000000000007FFFFFFFFFFFFFFF88C
:102C50000000000000000003FFFFFFFFFFFFFFF880
:102C60000000000000000001FFFFFFFFFFFFFFF07A
:102C70000000000000000000FFFFFFFFFFFFFFE07B
:102C800000000000000000007FFFFFFFFFFFFFC00B
:102C900000000000000000003FFFFFFFFFFFFF00FB
:102CA00000000000000000000FFFFFFFFFFFFE001C
:102CB000000000000000000001FBFFFFFFFFF0002C
:102CC00000000000000000000003FFFFFFF0000014
:102CD00000000000000000000001FFFFFFC0000036
:102CE00000000000000000000001FFFFFF8001FE67
:102CF0001C18F0F3FC0380000000FFFFFF0001FF41
:102D00009C18F0F3FE07800000007FFFFE0001C367
:102D10009C18F1F38707C00000003FFFFC0001C1D1
:102D20009C18F1F38706C000000087FFF86001C31C
:102D30009C18D9F3860EC0000001F0FFE3E001FF0C
:102D40001C18D9F3FE0CE0000001FCFFDFF001FECF
:102D50001C18DB73FE1C60000003FF7FFFF001CE38
:102D60001C18DB73871C70000003FFFFFFF001C716
:102D70000C18CF73831FF0000003FFFFFFF001C7A3
:102D80000C38CF73833FF0000001FFFFFFF001C359
:102D90008FF8CE73FF3838000001FFFFFFE001C15C
:102DA000C7F0CE73FE3018000001FFFFFFE0000007
:102DB00001800000000000000000FFFFFFC00000D5
:102DC00000000000000000000000FFFFFFC0000046
:102DD000000000000000000000007FFFFF800000F6
:102DE000000000000000000000003FFFFF80000026
:102DF000000000000000000000003FFFFF00000096
:102E0000000000000000000000001FFFFE000000A6
:102E10000F8000000600000000000FFFFE00000011
:102E20000FE000000600000000000FFFFC000000A3
:102E30000C60000006000000000007FFFC0000001E
:102E40000C63C7CF3E0000000000077FB800000001
:102E50000FC666CF660000000000067F98000000E5
:102E60000FE630CC66000000000003FFF800000011
:102E70000C2437CC66000000000003FFF0000000C7
:102E80000C3624CC66000000000003FFF0000000B8
:102E90000FE7E6CC7E000000000003FFF00000001A
:102EA0000FC3C76C3E000000000001FFE0000000FF
:102EB0000000000000000000000000FFC000000053
:102EC00000000000000000000000003F00000000C3
:102ED00000000000000000000000000000000000F2
:102EE0000000000000000001FFFFFFFFFFFFFFFFE9
:102EF000FFFFFFFFFF0FFFFFFFFFFFFFFFFFFFFFD2
:102F0000FFFFFF1E0000000000000000000007FFA0
:102F1000FF380000000000000000000003FFFF7009
:102F20000000000000000000000001FFFF60000042
:102F3000000000000000000000FFFF600000000033
:102F4000000000000000007FFFC000000000000043
:102F500000007800003FFFC00FC0FC000000000030
:102F60007818001FFFC03FE1FF0000000000783C20
:102F7000000FFFC07FF3FF8000000000783C0007D7
:102F8000FFC0FFFFFFC000000000783C0003FFC14E
:102F9000F87F87E00000000078000001FFC1F03FEB
:102FA00003E00000000078000000FFC1E01E01E027
:102FB0001F0003E0783C03F07FC1E01E01E07FC00A
:102FC0000FF8783C07FC3FC1E01E01E1FFE01FFC69
:102FD000783C0FFE1FC1E01E01E3FFF03FFE783C8E
:102FE0001FFE0FC1E01E01E3F3F83F3E783C3F3F78
:102FF00007C1E01E01E7E0FC7C1F783C3E1F07C1D3
:10300000E01E01E7C07C7C0F783C3C0F03C1E01E52
:1030100001E7807C780F783C3C0F03C1E01E01E79C
:10302000803C7800783C3C0F03C1E01E01E7803C07
:103030007800783C3C0F03C1E01E01E7803C78003B
:10304000783C3C0F03C1E01E01E7C03C7800783CAF
:103050003C0F03C1E01E01E3E03C78007C3C3C0FE8
:1030600003C1E01E01E3FF3FF8007FBC3C0F03C13A
:10307000E01E01E1FF3FF8003FBFFC0F03C1E01E6F
:1030800001E0FF3FF8001FBFFC0F03C1E01E01E09D
:103090007F3FF8000FBFFC0F03600000000000003E
:1030A00000000000000007600000000000000000B9
:1030B000000000000670000000000000000000009A
:1030C00000000E38000000000000000000000000BA
:1030D0001C1E000000000000000000000000780F2F
:1030E000FFFFFFFFFFFFFFFFFFFFFFFFF001FFFFFD
:1030F000FFFFFFFFFFFFFFFFFFFF801000AA03F0AD
:10310000013A019002220130031001D00302017044
:1031100004F7001005ED00B005E5005006DD00F0F5
:1031200006D7009007D1003008CC00D008C7007047
:1031300009C300100ABE00B00ABB00500BB700F074
:103140000BB300900CB000D00DAA00100FA50050DA
:1031500010A00090119B00D0129600B01490009027
:10316000168B0070188500501A8000301C7B00B050
:103170001E750030216F00B02369003026640010F6
:10318000285F00902A5A00702C5500F02E4F0070D6
:10319000314800B0324500F033410070363900103C
:1031A0003737005038330090392D00D03A2700B01F
:1031B0003C1C00503D1700F03D1100903E0900D02E
:1031C0003FE5FF5072696E742066726F6D204D6529
:1031D000646961004D6F76652025736D6D004D6FDC
:1031E000766520302E316D6D004D6F766520316D26
:1031F0006D004D6F76652031306D6D004D6F7665D9
:103200002041786973004578747275646572004D69
:103210006F7665205A004D6F76652059004D6F76A8
:1032200065205800627574746F6E00436F6E746928
:103230006E7565004C6F61642046696C616D656EEA
:1032400074205400496E736572742066696C616DF8
:10325000656E7420616E642073656E64204D31303C
:10326000380A0000002100240027002A002D003029
:1032700000330001010000040107010A01000020E1
:10328000002300260029002C002F0032000001003E
:103290000003010601090100000A0B02090C0D0ED2
:1032A0000807030401000000000000000000000007
:1032B000000000000000000000000000000000000E
:1032C00000000012111000000000000000000000CB
:1032D00000000000000000000000000000204D3948
:1032E000322058004D32342053256C642054256C14
:1032F00064004739322E3920452573004731204676
:103300002564004739322E39205A25730047312071
:103310005A3020463230300047312058257320592A
:103320002573204633303030004731204525642056
:10333000463230300047312045313020463330307E
:1033400030004D34323020532569205A2573004D0A
:103350003130362050256920532569004D313039F0
:1033600020532569005425692053004D3139302000
:10337000532569004D3230302054256920443000F7
:103380004D323030205425692044257300473238AF
:1033900052305859004739322E39204530205A25AD
:1033A00073004D343230205330205A300020496EA3
:1033B00076616C696420657874727564657220004A
:1033C000205500486F74656E64206F66667365747F
:1033D000733A00204A00205200206D657368207304
:1033E0006C6F747320617661696C61626C652E0A22
:1033F000003F496E76616C696420736C6F742E0AAD
:10340000004D65736820736176656420696E207372
:103410006C6F7420003F556E61626C6520746F2084
:1034200073617665206D65736820646174612E0A2E
:103430000020736C6F743D00206D65736865735F69
:10344000656E643D004532454E443D004D657368F0
:10345000206C6F616465642066726F6D20736C6FA1
:103460007420003F556E61626C6520746F206C6F34
:103470006164206D65736820646174612E0A004880
:10348000617264636F6465642044656661756C7421
:103490002053657474696E6773204C6F6164656452
:1034A0000A003B2000556E696669656420426564C8
:1034B000204C6576656C696E670020204D36303390
:1034C000200020204D34313220530046696C616D5C
:1034D000656E742072756E6F75742073656E736F90
:1034E000723A00546F6F6C2D6368616E67696E6726
:1034F0003A005431204C005430204C0046696C6135
:103500006D656E74206C6F61642F756E6C6F616495
:10351000206C656E677468733A0020204D38353131
:103520002058005A2D50726F6265204F6666736591
:10353000740020204D343133205300506F77657272
:103540002D4C6F7373205265636F766572793A0004
:1035500020204D3330312050005049442073657491
:1035600074696E67733A0020460020480020204DA1
:103570003134352053004D6174657269616C206887
:10358000656174757020706172616D6574657273C8
:103590003A0020204D323831205000536572766F4A
:1035A00020416E676C65733A00206D6573686573C2
:1035B0002E0A0A00454550524F4D2063616E206827
:1035C0006F6C642000416374697665204D65736893
:1035D00020536C6F743A200020204D343230205339
:1035E0000020204D32313820540020204D3230361A
:1035F000205800486F6D65206F66667365743A00E9
:1036000020204D323035204200416476616E636582
:10361000643A20423C6D696E5F7365676D656E74D8
:103620005F74696D655F75733E20533C6D696E5FB5
:1036300066656564726174653E20543C6D696E5FB9
:1036400074726176656C5F66656564726174653E0F
:10365000204A3C6A756E635F6465763E0020204DAB
:10366000323034205000416363656C657261746967
:103670006F6E2028756E6974732F7332293A20504B
:103680003C7072696E745F616363656C3E20523C8E
:10369000726574726163745F616363656C3E20542C
:1036A0003C74726176656C5F616363656C3E00209B
:1036B000204D3230312058004D6178696D756D2094
:1036C000416363656C65726174696F6E2028756E05
:1036D0006974732F7332293A0020204D3230332021
:1036E00058004D6178696D756D206665656472611D
:1036F0007465732028756E6974732F73293A0053AB
:10370000746570732070657220756E69743A00205C
:10371000204D32303020530020204D3230302054A4
:10372000002044697361626C65640A0046696C61DB
:103730006D656E742073657474696E67733A0020EA
:10374000204D3134392043203B20556E697473205D
:10375000696E2043656C736975730A0020286D6D6E
:1037600029002020473231202020203B20556E693F
:10377000747320696E206D6D006F70656E00545219
:10378000494747455245440066696C616D656E74F2
:10379000007A5F6D6178007A5F6D696E00795F6DA8
:1037A000696E00785F6D696E005265706F72746942
:1037B0006E6720656E6473746F70207374617475C6
:1037C000730A000000484300004843000090400096
:1037D00000F0410000A0420000A0420000FA4400B6
:1037E00000164358020000580200001E000000109E
:1037F0002700002053697A653A200043616E6E6F9E
:1038000074206F70656E2073756264697220005356
:10381000442063617264206F6B0A006F70656E52A2
:103820006F6F74206661696C65640A00766F6C75F1
:103830006D652E696E6974206661696C65640A0045
:103840004E6F20534420636172640A004D3233206E
:1038500025730046696C652073656C6563746564E7
:103860000A0046696C65206F70656E65643A2000D9
:10387000454E4420535542524F5554494E450A0037
:103880002220706F73002220706172656E743A227C
:1038900000535542524F5554494E452043414C4CDC
:1038A000207461726765743A220053756263616CBB
:1038B0006C204F766572666C6F770045786365653E
:1038C000646564206D617820535542524F555449C8
:1038D0004E452064657074683A310A005772697405
:1038E000696E6720746F2066696C653A20004465D4
:1038F0006C6574696F6E206661696C65642C204626
:10390000696C653A200046696C652064656C657475
:1039100065643A005344207072696E74696E672062
:103920006279746520004E6F742053442070726970
:103930006E74696E670A00667265736800646F6909
:103940006E67004E6F772000496E76616C69642067
:1039500065787472756465720A00544845524D4129
:103960004C2052554E4157415900546865726D6163
:103970006C2052756E61776179004572723A204D04
:10398000415854454D50004D415854454D502074B8
:103990007269676765726564004572723A204D49C5
:1039A0004E54454D50004D494E54454D5020747273
:1039B0006967676572656400202F0020400020421F
:1039C000403A0020403A0020573A0041637469763B
:1039D000652045787472756465723A20004164769A
:1039E000616E6365642053657474696E6773005516
:1039F0004E4C4F41442046494C414D454E540046A3
:103A0000494C414D454E54204348414E4745004E98
:103A10006F7A7A6C650046616E205370656564004C
:103A20004C6F61642053657474696E6773005265EE
:103A300073746F72652044656661756C74730053AE
:103A4000746F72652053657474696E677300507289
:103A50006568656174202420436F6E660052756E40
:103A60006F75742053656E736F7200546F6F6C20A6
:103A70004368616E676500546F6F6C204F666673B4
:103A8000657473004D383531205A300A4D34313267
:103A90002053300A4D31313720486F6D6520585919
:103AA0005A0A4732380A4D313137205679726F76CB
:103AB0006EC3A16EC3AD206F7379205A0A473334A9
:103AC0000A4D323031205A32350A4731205A302ED1
:103AD0003520463630300A4D313930205337300AE0
:103AE0004D31313720486F6D652058595A0A473299
:103AF000380A4732392050310A47323920540A47B0
:103B0000323920410A4D3530300A4D31303420539E
:103B1000300A4D3431322053310A4D302050726F0B
:103B20007665C48F746520322E6B726F6B004D38D2
:103B30003531205A300A4D3431322053300A4D315C
:103B4000313720486F6D652058595A0A4732380A74
:103B50004731205A300A4D3130342053300A4D3429
:103B600031322053310A4D302050726F7665C48F48
:103B7000746520332E6B726F6B004D3530300A4DFB
:103B80003130342053300A4D3134302053300A4D17
:103B90003131372048656174626564207679726FCF
:103BA000766E616EC3A1203A290A47342053320A47
:103BB0004D313137004732380A4D35303300342E1D
:103BC0006B726F6B2028556C6FC5BE656EC3AD29D7
:103BD00000332E6B726F6B20285A2D6F66736574DD
:103BE0002900322E6B726F6B20284F7361205A2090
:103BF000646F20302900486F6D65202620496E666D
:103C00006F00312E6B726F6B20285679726F766E53
:103C1000C3A16EC3AD29004D37303200556E6C6FB5
:103C200061642046696C616D656E74004D3730319A
:103C3000004C6F61642046696C616D656E74004D67
:103C4000363030204230005075726765206D6F72DB
:103C50006500524553554D45204F5054494F4E53E2
:103C60003A005052494E542050415553454400208B
:103C7000204E6F7A7A6C653A20004D6F74696F6ED2
:103C80000046616465204865696768740047323999
:103C90002057004F75747075742055424C20496E42
:103CA000666F0055424C20546F6F6C73004F7574F3
:103CB000707574204D657368204D6170004D65739B
:103CC000682053746F72616765004D6573682045A5
:103CD0006469740047323920410041637469766138
:103CE00074652055424C00473239204400446561D8
:103CF000637469766174652055424C002568753A95
:103D00002530326875002568756420253032687565
:103D10003A25303268750020202020202020001F06
:103D2000E020102310249010A0112022102410371E
:103D3000B00840048003001FE0201021102310155C
:103D40002011202110211031300840048003001F71
:103D5000E03FF03CF03B701F601EE03DF03BF03870
:103D6000700FC0078003001FE03FF03EF03CF01AE8
:103D7000E01EE03EF03EF03EF00FC007800300374B
:103D80003D1F3D673D4F3D3FFFF038007030FC3038
:103D900020FC102078102030102C00D02E31D02F95
:103DA0007BD02F7BD02E31D02C00D020301020782B
:103DB0001020FC1030FC303800703FFFF03FFFF067
:103DC0003800703186302387102787902F87D02FB7
:103DD00003D02030102078102078102030102F03CE
:103DE000D02F87D0278790238710318630380070F6
:103DF0003FFFF01FFFF81000081000081000081027
:103E0000000810000810000810000810000810003A
:103E1000081FFFF81FFFF81FFFF8100008108408A4
:103E200010420810420810840811080811080810F0
:103E300084081000081FFFF81FFFF81FFFF81FFF7E
:103E4000F8041040020820020820041040082080D6
:103E50001041001041000820800410400000001FA5
:103E6000FFF81FFFF843616E63656C004D38340046
:103E700054656D706572617475726500537461721A
:103E800074205072696E740043616E6E6F742065A9
:103E90006E746572207375626469723A2000022E36
:103EA0002E004578747275646572202A0053656C23
:103EB000656374202A0044697361626C65205374E1
:103EC000657070657273004732380A4D343820507F
:103ED0003130004D34382050726F62652054657364
:103EE00074004175746F20486F6D6500507265688D
:103EF000656174202420416C6C00507265686561B6
:103F000074202420456E64207E00507265686561CF
:103F100074202420426564005072656865617420D5
:103F200024207E004572723A207574663820666FD0
:103F30006E74206E6F7420696E697469616C697A41
:103F400065642E00000C0F00FE07022603BC017FF3
:103F5000FE08FE08FE05080806000040F0C8888834
:103F6000987810050808060000C0F88888888888B6
:103F7000F80505050600012030F830200508080680
:103F800000002070F820202020E00509090600FF2D
:103F90002070A8A8B888887020050606060001E0F1
:103FA0008CEA8C8A0A0509090600FFF8A888888827
:103FB0008888A8F8050A0A0600FE2050505050884C
:103FC000A8A8887003030306000340A040FFFFFF7A
:103FD000FFFFFFFFFFFFFFFFFFFFFFFFFFFFFFFFF1
:103FE000FFFFFF0000000605FF0107070602008033
:103FF000808080800080030303060105A0A0A00547
:10400000060606000050F85050F850050909060051
:10401000FF2070A8A07028A87020050707060000E0
:10402000C8C8102040989805070706000040A0A0C7
:1040300040A89068010303060205808080030909F7
:104040000601FF204040808080404020030909068F
:1040500001FF8040402020204040800507070600E7
:104060000020A8702070A82005050506000120206A
:10407000F820200203030601FFC04080050101066D
:104080000003F8020202060100C0C005070706008F
:1040900000081010204040800507070600007088C7
:1040A00098A8C8887003070706010040C040404038
:1040B00040E0050707060000708808102040F8055A
:1040C0000707060000F80810300888700507070683
:1040D000000010305090F81010050707060000F897
:1040E00080F008088870050707060000304080F05F
:1040F000888870050707060000F8081010202020A7
:104100000507070600007088887088887005070713
:104110000600007088887808106002050506010016
:10412000C0C000C0C00206060601FFC0C000C040FB
:104130008003050506010120408040200503030699
:104140000002F800F80305050601018040204080C8
:1041500005070706000070881020200020050707CB
:104160000600007088B8A8B8807005070706000030
:10417000708888F8888888050707060000F0484896
:10418000704848F005070706000070888080808826
:1041900070050707060000F04848484848F0050742
:1041A00007060000F88080F08080F8050707060009
:1041B00000F88080F0808080050707060000708886
:1041C0008080988870050707060000888888F8882E
:1041D0008888030707060100E04040404040E005B2
:1041E000070706000038101010109060050707063A
:1041F00000008890A0C0A0908805070706000080F6
:104200008080808080F805070706000088D8A8888D
:104210008888880507070600008888C8A8988888C5
:1042200005070706000070888888888870050707DA
:10423000060000F08888F0808080050707060000EF
:1042400070888888A89068050707060000F08888AD
:10425000F0A0908805070706000070888070088825
:1042600070050707060000F8202020202020050701
:104270000706000088888888888870050707060078
:104280000088888888505020050707060000888825
:104290008888A8A850050707060000888850205085
:1042A0008888050707060000888850202020200500
:1042B0000707060000F80810204080F803090906E7
:1042C00001FFE080808080808080E0050707060095
:1042D00000804040201010080309090601FFE0207B
:1042E000202020202020E005030306000520508820
:1042F0000501010600FEF8030303060105804020C6
:10430000050505060000700878887805070706008F
:10431000008080F0888888F0050505060000708020
:104320008088700507070600000808788888887864
:104330000505050600007088F08070050707060077
:1043400000304840E04040400507070600FE708806
:1043500088887808700507070600008080F0888844
:1043600088880307070601004000C0404040E00481
:1043700009090601FE1000301010101090600507AA
:104380000706000080808890E090880307070601F8
:1043900000C04040404040E0050505060000D0A8B0
:1043A000A8A8A8050505060000B0C88888880505E6
:1043B0000506000070888888700507070600FEF073
:1043C000888888F080800507070600FE788888883E
:1043D000780808050505060000B0C880808005053E
:1043E0000506000078807008F00507070600002029
:1043F00020F82020201805050506000088888898E8
:104400006805050506000088888850200505050612
:1044100000008888A8A850050505060000885020DF
:1044200050880507070600FE8888885020408005D0
:104430000505060000F8102040F80309090601FFF1
:104440002040404080404040200109090602FF8092
:1044500080808080808080800309090601FF804081
:104460004040204040408005030306000248A890D9
:10447000FF506F776572204F757461676500436800
:10448000616E67652046696C616D656E7400436F8F
:104490006E66696775726174696F6E00256C642E53
:1044A00025696D00457874727564656420546F7475
:1044B000616C004C6F6E67657374204A6F622054A4
:1044C000696D65003E2000546F74616C2050726904
:1044D0006E742074696D6500436F6D706C657465F2
:1044E00064005072696E7420436F756E74003135CC
:1044F00030004245443A31252062657461203339E9
:1045000035300052756E6177617920576174636848
:104510003A204F4E0045323A2031252062657461C1
:104520002033393530004D61782054656D7000328C
:104530003930004D696E2054656D7000350045318D
:104540003A203125206265746120333935300050BE
:1045500053550058426F780050726F746F636F6CE0
:1045600000312E3000426175640032353030303019
:104570000052756D6261004578747275646572737E
:1045800000446556656C695800323032302D303742
:104590002D3136005072696E7465722053746174E7
:1045A0007300546865726D6973746F727300426F43
:1045B00061726420496E666F005072696E74657234
:1045C00020496E666F004D313030300053746F708B
:1045D000205072696E7400526573756D652050725B
:1045E000696E74004261636B004D32310043686153
:1045F0006E6765204D65646961004D383000537702
:104600006974636820506F776572204F6E004D3873
:10461000310053776974636820506F776572204F5B
:1046200066660041626F7574205072696E746572BF
:10463000005679726F766EC3A16EC3AD2048656176
:10464000746265640054756E650050617573652011
:104650005072696E74004E6F204D65646961005040
:1046600061726B696E672E2E2E00000057616974AF
:1046700020666F720066696C616D656E7420636898
:10468000616E676500746F207374617274005761A6
:10469000697420666F720066696C616D656E742066
:1046A000756E6C6F616400004E6F7A7A6C6520687D
:1046B000656174696E6700506C6561736520776130
:1046C00069742E2E2E00005072657373206275740B
:1046D000746F6E00746F2068656174206E6F7A7AF3
:1046E0006C650000496E736572742066696C616D5B
:1046F000656E7400616E64207072657373206275FC
:1047000074746F6E00746F20636F6E74696E75657C
:10471000005761697420666F720066696C616D652F
:104720006E74206C6F616400005072657373204278
:104730007574746F6E00746F20726573756D65208B
:104740007072696E7400005761697420666F722020
:104750007072696E7400746F20726573756D652E6A
:104760002E2E00005761697420666F720066696CB6
:10477000616D656E742070757267650000506C65C0
:10478000617365205265736574005052494E5445FB
:10479000522048414C5445440025533A20255300AB
:1047A000706F7765726F6666004B494C4C45442EBE
:1047B00020005072696E7465722068616C74656463
:1047C0002E206B696C6C28292063616C6C656421F8
:1047D0000A006563686F3A004572726F723A002092
:1047E000204D3432312049002020473239204939C8
:1047F000390A006163746976650A0020537973741D
:10480000656D2076312E303120002020207C0A007A
:104810004E414E0020202E20202000207C004C43C2
:10482000443A0A004353563A0A0020666F72200049
:104830003A0A0A000A42656420546F706F67726119
:10484000706879205265706F7274007C3C3E5E2BFC
:104850003D3F2F5B5D3B2C2A225C0050726F6265EE
:104860002059204F66667365740050726F62652030
:1048700058204F66667365740045207374657073C5
:104880002F6D6D005A2053746570732F6D6D005934
:104890002053746570732F6D6D00582053746570CC
:1048A000732F6D6D00496E6974004D3432380050BD
:1048B000726F6265204F666673657473004A756E29
:1048C0006374696F6E2044657600416363656C654F
:1048D000726174696F6E0056656C6F6369747900FC
:1048E00053657420486F6D65204F666673657473F9
:1048F000005A20526169736500326E64204E6F7AEF
:104900007A6C65205A00326E64204E6F7A7A6C653C
:10491000205900326E64204E6F7A7A6C6520580000
:104920005A204F66667365742054657374004D3564
:1049300030300A47312046323030205A313000536F
:10494000617665004D383531205A300A4732380AD1
:1049500047312046323030205A3000496E69742089
:10496000546F7563684D4900456E636C6F73757263
:10497000650000FE0003FF8007C7C00701E00000DC
:10498000E00000F00000700400700E00701F007066
:104990003F80F00E00E00F01E007C7C003FF80007A
:1049A000FE0000FE0003FF8007C7C00F01E00E00FD
:1049B000E03F80F01F00700E007004007000007077
:1049C0000000F00000E00701E007C7C003FF80001F
:1049D000FE000E000E000E000E000E000E000E0077
:1049E0000E007FC03F801F000E00040004000E0078
:1049F0001F003F807FC00E000E000E000E000E0054
:104A00000E000E000E00FFFFFF7F80FFC0FFC0FF03
:104A1000C07F807F80FFC0FFC0FFC03F001E000C32
:104A200000646F6E650A00496E7375666669636936
:104A3000656E7420646174610A00457874726170F7
:104A40006F6C6174696E67206D6573682E2E2E0021
:104A50002F2F616374696F6E3A0070726F6D70749E
:104A60005F00626567696E0073686F770044697301
:104A700061626C6552756E6F757400507572676512
:104A80004D6F726500554E4B4E4F574E205354415B
:104A900054450047434F44455F494E464F004C4301
:104AA000445F50415553455F524553554D4500466F
:104AB000494C414D454E545F52554E4F55545F43FE
:104AC0004F4E54494E55450046494C414D454E5474
:104AD0005F52554E4F5554004D383736205265734E
:104AE000706F6E64696E672050524F4D50545F0076
:104AF00053656E64204D31303820746F20726573B9
:104B0000756D650A0052656865617420446F6E6555
:104B100000526568656174696E672E2E2E005265BD
:104B200068656174004865617465722054696D65DB
:104B30006F75740053656E64204D31303820746F8A
:104B40002068656174206E6F7A7A6C650A004E6F1A
:104B50007A7A6C65205061726B6564000000803F5A
:104B6000398E0F42398E8D425655D342398E0C43C1
:104B7000C7712F4356555243E4387543390E8C4361
:104B800000809D430000803F1CC715421CC7934214
:104B9000AAAADC421CC71243E3383743AAAA5B43E4
:104BA000380E80431C4792430080A4435072696EC4
:104BB0007420506175736564003F00496E697469C3
:104BC000616C697A6520454550524F4D006E6F7497
:104BD000696669636174696F6E2000446556656C2F
:104BE00069582052656164792E005072696E74694B
:104BF0006E672E2E2E0063616E63656C00507269C5
:104C00006E742041626F72746564004469736D69EB
:104C100073730055492041626F72746564004D32B0
:104C20003520500A4D323400526573756D6500555C
:104C3000492050617573650050617573696E672E08
:104C40002E2E00726573756D6500454550524F4DAF
:104C50002056657273696F6E204572726F720045DF
:104C60004550524F4D20496E646578204572726FF1
:104C70007200454550524F4D2043524320457272B9
:104C80006F720049676E6F7265004361703A004D44
:104C9000302053746F70004D312053746F70004397
:104CA0006C69636B20746F20526573756D652E2E71
:104CB0002E0047322F473320626164207061726199
:104CC0006D65746572730A0050726F6265204F667D
:104CD00066736574205A00003402280211241FBE36
:104CE000CFEFD1E2DEBFCDBF00E00CBF13E0A0E00C
:104CF000B2E0E4E6FDE603E00BBF02C007900D92D0
:104D0000A437B107D9F729E1A4E7B3E001C01D92A8
:104D1000A33EB207E1F716E2CDE6D6E200E006C018
:104D200021970109802FFE010F949EB1CC36D10747
:104D300080E00807A9F70F94529B0D94A0B60C943D
:104D400000002F923F924F925F926F927F928F92CC
:104D50009F92AF92BF92CF92DF92EF92FF920F930A
:104D60001F93CF93DF93CDB7DEB7E1970FB6F894DB
:104D7000DEBF0FBECDBF89AB2091DB1728A7FF2474
:104D8000F394F092DB178091BA048D3409F416C2C3
:104D9000843511F40C941D37873411F00C94383796
:104DA0002091B8043091B9042B31310509F48DC03C
:104DB0009CF42430310534F422303105CCF537FF32
:104DC0002BC0F8C12430310509F440C0253131052C
:104DD00011F40C943A37EEC12A32310509F4E0C1DE
:104DE0005CF42D31310509F49BC00CF489C02E31DF
:104DF000310509F499C0DEC12B35310509F41AC11A
:104E00002C35310509F41BC12A35310509F0D2C111
:104E10001092F50F0C943A3780910017813011F001
:104E20000C943A370F947E070E94DBA40C943A3717
:104E300080910017813011F00C943A3722303105FF
:104E400009F080E00F94D0900C943A3780E50E94EE
:104E50001B62882329F00F946E076B017C0103C04D
:104E6000C12CD12C760183E50E941B62882361F05E
:104E70000E94996120E030E04AE754E40F9417ABB8
:104E80000F942CB36B017C010E94CBE180917019CF
:104E9000811105C060E087E598E00F944D8B0E947A
:104EA00039FFC60ED71EE81EF91E0E9439FFDC012D
:104EB000CB018C199D09AE09BF09B7FD02C00C9446
:104EC0003A3780E00E943940F0CF87E00E94D1A3BA
:104ED00081110C943A378CE0E1EAF2E0DE011196A0
:104EE00001900D928A95E1F760E070E080E50F9403
:104EF0008E04BE016F5F7F4F0F94F2870C943A3798
:104F00008091D2188770873011F00C94433760E09D
:104F10008FE40E94239681110C943A370C94433706
:104F20000E94286C0C943A372091B4073091B50751
:104F30004091B6075091B7076091350270913602E3
:104F400080913702909138020F94B9B1AB01BC0146
:104F500088E50E94EA7369837A838B839C8320911E
:104F6000B8073091B9074091BA075091BB076091DB
:104F7000390270913A0280913B0290913C020F9469
:104F8000B9B1AB01BC0189E50E94EA736D837E83F0
:104F90008F839887BE016B5F7F4FCE0101960E9481
:104FA000C462882311F40C943A3780E00F947E5643
:104FB0000E9407AE61E085E40E94239601E021E0B3
:104FC00041E0682FCE0101960E94C4676B017C010D
:104FD0009B01AC010F9406B5811126C049815A810D
:104FE0006B817C818DE898E00F94CB5C4D815E8174
:104FF0006F81788588E898E00F94CB5CB701A601B3
:1050000083E898E00F94CB5C8091ED0F882311F03A
:105010008F3719F48AE00E9432408091ED0F882387
:1050200019F08AE00E94203E0E94EEAD0E94BCB0C2
:105030000C943A378FE08093F50F0C943A378091B7
:10504000B704882349F1893009F0A6C09DEAA92E4A
:1050500092E0B92E25E3E22E22E0F22ED12C00E0E0
:1050600010E0F50181915F010E941B62882369F0C5
:105070000E949961F7016083718382839383133067
:1050800011F401E002C0DD24D3941F5FF4E0EF0EC1
:10509000F11C143031F775C01DEA212E12E0312EBB
:1050A00000E4E02E00E1F02E25E332E03DA32CA346
:1050B00080EEC82E8FE0D82E00E010E0F101819143
:1050C0001F010E941B62882309F44AC00E94996153
:1050D0002B013C01133049F0F601208131814281DE
:1050E00053810F94B8B12B013C01ECA1FDA12081AB
:1050F000318142815381C301B2010F94B8B14B0198
:105100005C012DEB37E346E855EB0F9419B487FDAE
:105110000AC02DEB37E346E855E3C501B4010F940F
:10512000B1AA1816ECF4133051F440924102509297
:105130004202609243027092440201E011C0A50154
:105140009401F70160817181828193810F94B9B1DB
:10515000F7016083718382839383812F0E949EA3D2
:105160001F5FF4E0EF0EF11C2CA13DA12C5F3F4F1F
:105170003DA32CA334E0C30ED11C143009F09ECF04
:1051800005C0DD2019F00E94BAB006C0002321F04E
:1051900081E492E00E94DCE10E94BCB00C943A37BA
:1051A00080910017813011F00C943A370E94C79F0C
:1051B0000C943A370E9494E50C943A370091B80465
:1051C0001091B9040D37110509F42AC60CF039C144
:1051D0000035110509F428C60CF0A0C00B311105EB
:1051E00009F4BAC20CF05AC00531110509F480C2A5
:1051F000C4F50131110509F467C24CF40230110500
:1052000010F00C941A370F94F2950C943A3702313F
:10521000110509F45AC60431110511F00C941A371E
:105220008DEA98E00F94375983E792E10F94D560A7
:105230008BE1E3E7F2E1DE01119601900D928A9590
:10524000E1F760E070E0CE0101960F94661ECE019A
:1052500001960E945C968EE998E00F9437590C9461
:105260003A370831110509F461C274F406311105A9
:1052700009F442C20731110511F00C941A37E0917C
:10528000B504F091B60446C20931110509F452C2C1
:105290000A31110509F452C20C941A370A32110569
:1052A00009F442C3FCF40E31110509F4C7C284F4B9
:1052B0000C31110509F4BAC20D31110511F00C942D
:1052C0001A37809140128E7F809340120C943A37A7
:1052D0000F31110509F4F9C20032110509F4BEC2FB
:1052E0000C941A370C34110509F443C36CF40033E1
:1052F000110509F43AC30B34110511F00C941A3757
:105300000E94E9CE0C943A370D34110509F435C3E7
:105310000E34110509F435C30C941A370D361105F6
:1053200009F413C40CF03FC00C35110509F4F3C5A2
:1053300004F50335110509F4C1C58CF401351105D7
:1053400009F49CC50235110511F00C941A378091AF
:10535000F50F8F7D80618093F50F0C943A370435FB
:10536000110509F4B2C50535110509F4B1C50C9450
:105370001A370A36110509F40DC454F4083611051C
:1053800009F4BBC30936110509F4E3C30C941A37B9
:105390000B36110509F44DC40C36110511F40C94AB
:1053A0003A370C941A370337110509F4B7C50CF5D1
:1053B0000037110511F40C943A3754F40E361105E8
:1053C00009F44DC40F36110509F468C40C941A375A
:1053D0000137110509F4B9C40237110511F00C9415
:1053E0001A370E94E1E98DEB91E10E9494C50C947B
:1053F0003A370737110509F477C694F405371105D4
:1054000009F40EC60637110511F00C941A370091F5
:10541000B5041091B60424E08FEFF12C30E02AC6D9
:105420000837110509F463C60937110511F00C940A
:105430001A3710923615109235150F94220E0C94CF
:105440003A37003981E0180711F40C943E350CF01E
:1054500094C0033D110511F40C9459320CF03FC077
:10546000083C110509F42EC7E4F40639110509F4C6
:10547000BAC654F40C38110509F489C40139110570
:1054800009F43DC60C941A370B39110509F4A0C470
:105490000E3B110511F00C941A370E9471790C948F
:1054A0003A370C3C110509F4D3C754F4093C1105F3
:1054B00009F48CC70B3C110509F4ABC70C941A37DF
:1054C0000D3C110509F4CEC70E3C110511F00C94EA
:1054D0001A375CE4E52E50E1F52E10E0D1C7083113
:1054E000E1E01E0711F40C94CB3314F50C3D1105CB
:1054F00011F40C94313374F4093D110511F40C943A
:105500001E330A3D110511F00C941A370F947106E1
:105510000C943A370D3D110511F40C945033023EB2
:10552000110511F00C941A370F94A1040C943A371A
:105530000C3221E0120711F40C94AB347CF40931E5
:1055400081E0180711F40C945F340232114011F01D
:105550000C941A370F9401900C943A370D32E1E015
:105560001E0711F40C94C0340F32114011F00C944A
:105570001A370E9401740C943A37073F21E0120752
:1055800011F40C944D360CF04FC0043A81E018072A
:1055900011F40C9450352CF50A39E1E01E0711F492
:1055A0000C943A378CF4013921E0120711F40C9471
:1055B00041350239114011F00C941A370E94B26241
:1055C0000E94BCB00C943A370C3981E0180711F4F2
:1055D0000C9446350D39114011F40C94FD360C94A1
:1055E0001A37043FE1E01E0711F40C9447366CF4BF
:1055F000053A21E0120711F40C9453350C3A11408E
:1056000011F40C94E9350C941A37053F81E0180722
:1056100011F40C944A36063F114011F00C941A37DD
:105620000F945D0E0C943A370E3BE2E01E0711F426
:105630000C94E9361CF5083522E0120711F40C949D
:105640006E366CF4083F81E0180711F40C9455365F
:105650000C30124011F40C9466360C941A370B354A
:10566000E2E01E0711F40C9471360D3B124011F06C
:105670000C941A370F9461090C943A37003A23E0DE
:10568000120709F414C16CF4033583E0180711F410
:105690000C94EC360C36134011F40C943A370C94FD
:1056A0001A37083EE3E01E0711F40C941437093E44
:1056B000F3E01F0711F40C941737073E134011F065
:1056C0000C941A370C94EF368091BB0484FF02C00F
:1056D0000C945A388091BD0487FF02C00C945A384C
:1056E0008091BE04837011F00C945A380C947B386E
:1056F0000F94E6190C943A370F94271980914012B1
:10570000877F8062809340120C943A37803209F48C
:105710001082319680818111F9CF60E08091B504CB
:105720009091B6040F945F1D0C943A370E948B7DC4
:105730000C943A370F94190C0C943A37809140121C
:1057400083FD02C00C943A3783E50E941B628111ED
:105750000C948D380C943A3783E40E94D2618823EC
:10576000B1F188EC98E00F9437598091BA138823EF
:1057700059F1BE016F5F7F4F87EB93E10F944C644B
:105780008091ED0F882311F08F3759F48E010F5F50
:105790001F4FF80181918F01882319F00E94324038
:1057A000F8CF8091ED0F882311F40C946B398E01A2
:1057B0000F5F1F4FF80181918F01882311F40C9422
:1057C0006B390E94203EF6CF8EEB98E0BAC283E59B
:1057D0000E941B62882331F10E94F395182F80915B
:1057E000ED0F80937903812F90E0CD970CF01CE3AF
:1057F000109378030E9439FF6B017C01212F30E068
:10580000A8EEB3E00F945BB1C60ED71EE81EF91EDA
:10581000C0927403D0927503E0927603F0927703FE
:105820000C943A370F947C180C943A378091B50455
:105830009091B6040F94141D0C943A378091401245
:1058400083FD02C00C943A370E945EEA8091B50451
:105850009091B6040F944B1C0C943A3780914012EF
:1058600082FD0E94CBE18091401283FD02C00C9426
:105870003A3760E080E50E942396182F682F8091C8
:10588000B5049091B6040F945F1D83E50E941B62DE
:10589000882321F00E9485610E947D7D0F94381934
:1058A00011110C943A370E94E9CE0C943A372091AA
:1058B000B5043091B60490914012926090934012DA
:1058C000C9010F94141D0C943A370E94EBBC6C8FE5
:1058D0007D8F8E8F9F8FBE016F5F7F4FCE014C9665
:1058E0000E949E7C60E0CE0101960F941E8C0F9466
:1058F0005D5DBE016F5F7F4F87ED98E00F94345D73
:105900008091ED0F882311F08F3719F48AE00E94FF
:1059100032408091ED0F882311F40C943A378AE0DD
:105920000E94203E0C943A376DE070E080E50E94C2
:1059300028628C0197FF02C00C943A37E82E60E091
:1059400089E40E94239681110C949238802F0E9442
:105950008B3B882311F40C9492380F94595D84EE9C
:1059600098E00F9437590C943A370E94E6990C94BA
:105970003A370E943ABD0C943A370E943FCE0C94BD
:105980003A3760E070E083E50E9428628E3491052A
:1059900039F40E9445CF80E00F94648C0C943A3720
:1059A0008BE599E00F943759609125157091261574
:1059B00082E599E00F94A95C6091271570912815F4
:1059C00085E499E00F94A95C6091251570912615E6
:1059D0008091271590912815681B790B8091AF074E
:1059E000815021E030E0823010F020E030E0621B96
:1059F000730B8AE399E00F94A95C8091ED0F8823E3
:105A000011F08F3719F48AE00E9432408091ED0F37
:105A1000882319F08AE00E94203E8BE599E00F94DC
:105A200037598091291590912A15A0912B15B09185
:105A30002C158C8F9D8FAE8FBF8FBE016F5F7F4FF8
:105A4000CE014C960E949E7CBE016F5F7F4F8DE21F
:105A500099E00F94345D80912D1590912E15A091B1
:105A60002F15B09130158C8F9D8FAE8FBF8FBE01DB
:105A70006F5F7F4FCE014C960E949E7CBE016F5F90
:105A80007F4F8DE199E00F94345D20E030E04AE7EC
:105A900054E46091311570913215809133159091D5
:105AA00034150F94B3B2AB01BC0185E099E00F94BB
:105AB000CB5C8091ED0F882311F08F3719F48DE6C0
:105AC0000E9432408091ED0F882319F08DE60E94EC
:105AD000203E8091ED0F882311F08F3719F48AE072
